{"abi":[{"type":"function","name":"addOwner","inputs":[{"name":"owner","type":"address","internalType":"address"}],"outputs":[],"stateMutability":"nonpayable"},{"type":"function","name":"getOwners","inputs":[{"name":"account","type":"address","internalType":"address"}],"outputs":[{"name":"ownersArray","type":"address[]","internalType":"address[]"}],"stateMutability":"view"},{"type":"function","name":"isInitialized","inputs":[{"name":"smartAccount","type":"address","internalType":"address"}],"outputs":[{"name":"","type":"bool","internalType":"bool"}],"stateMutability":"view"},{"type":"function","name":"isModuleType","inputs":[{"name":"typeID","type":"uint256","internalType":"uint256"}],"outputs":[{"name":"","type":"bool","internalType":"bool"}],"stateMutability":"pure"},{"type":"function","name":"isValidSignatureWithSender","inputs":[{"name":"","type":"address","internalType":"address"},{"name":"hash","type":"bytes32","internalType":"bytes32"},{"name":"data","type":"bytes","internalType":"bytes"}],"outputs":[{"name":"","type":"bytes4","internalType":"bytes4"}],"stateMutability":"view"},{"type":"function","name":"name","inputs":[],"outputs":[{"name":"","type":"string","internalType":"string"}],"stateMutability":"pure"},{"type":"function","name":"onInstall","inputs":[{"name":"data","type":"bytes","internalType":"bytes"}],"outputs":[],"stateMutability":"nonpayable"},{"type":"function","name":"onUninstall","inputs":[{"name":"","type":"bytes","internalType":"bytes"}],"outputs":[],"stateMutability":"nonpayable"},{"type":"function","name":"ownerCount","inputs":[{"name":"","type":"address","internalType":"address"}],"outputs":[{"name":"","type":"uint256","internalType":"uint256"}],"stateMutability":"view"},{"type":"function","name":"removeOwner","inputs":[{"name":"prevOwner","type":"address","internalType":"address"},{"name":"owner","type":"address","internalType":"address"}],"outputs":[],"stateMutability":"nonpayable"},{"type":"function","name":"setThreshold","inputs":[{"name":"_threshold","type":"uint256","internalType":"uint256"}],"outputs":[],"stateMutability":"nonpayable"},{"type":"function","name":"threshold","inputs":[{"name":"account","type":"address","internalType":"address"}],"outputs":[{"name":"","type":"uint256","internalType":"uint256"}],"stateMutability":"view"},{"type":"function","name":"validateSignatureWithData","inputs":[{"name":"hash","type":"bytes32","internalType":"bytes32"},{"name":"signature","type":"bytes","internalType":"bytes"},{"name":"data","type":"bytes","internalType":"bytes"}],"outputs":[{"name":"","type":"bool","internalType":"bool"}],"stateMutability":"view"},{"type":"function","name":"validateUserOp","inputs":[{"name":"userOp","type":"tuple","internalType":"struct PackedUserOperation","components":[{"name":"sender","type":"address","internalType":"address"},{"name":"nonce","type":"uint256","internalType":"uint256"},{"name":"initCode","type":"bytes","internalType":"bytes"},{"name":"callData","type":"bytes","internalType":"bytes"},{"name":"accountGasLimits","type":"bytes32","internalType":"bytes32"},{"name":"preVerificationGas","type":"uint256","internalType":"uint256"},{"name":"gasFees","type":"bytes32","internalType":"bytes32"},{"name":"paymasterAndData","type":"bytes","internalType":"bytes"},{"name":"signature","type":"bytes","internalType":"bytes"}]},{"name":"userOpHash","type":"bytes32","internalType":"bytes32"}],"outputs":[{"name":"","type":"uint256","internalType":"ERC7579ValidatorBase.ValidationData"}],"stateMutability":"view"},{"type":"function","name":"version","inputs":[],"outputs":[{"name":"","type":"string","internalType":"string"}],"stateMutability":"pure"},{"type":"event","name":"ModuleInitialized","inputs":[{"name":"account","type":"address","indexed":true,"internalType":"address"}],"anonymous":false},{"type":"event","name":"ModuleUninitialized","inputs":[{"name":"account","type":"address","indexed":true,"internalType":"address"}],"anonymous":false},{"type":"event","name":"OwnerAdded","inputs":[{"name":"account","type":"address","indexed":true,"internalType":"address"},{"name":"owner","type":"address","indexed":false,"internalType":"address"}],"anonymous":false},{"type":"event","name":"OwnerRemoved","inputs":[{"name":"account","type":"address","indexed":true,"internalType":"address"},{"name":"owner","type":"address","indexed":false,"internalType":"address"}],"anonymous":false},{"type":"event","name":"ThresholdSet","inputs":[{"name":"account","type":"address","indexed":true,"internalType":"address"},{"name":"threshold","type":"uint256","indexed":false,"internalType":"uint256"}],"anonymous":false},{"type":"error","name":"AlreadyInitialized","inputs":[{"name":"smartAccount","type":"address","internalType":"address"}]},{"type":"error","name":"CannotRemoveOwner","inputs":[]},{"type":"error","name":"InvalidOwner","inputs":[{"name":"owner","type":"address","internalType":"address"}]},{"type":"error","name":"InvalidSignature","inputs":[]},{"type":"error","name":"InvalidThreshold","inputs":[]},{"type":"error","name":"LinkedList_AlreadyInitialized","inputs":[]},{"type":"error","name":"LinkedList_EntryAlreadyInList","inputs":[{"name":"entry","type":"address","internalType":"address"}]},{"type":"error","name":"LinkedList_InvalidEntry","inputs":[{"name":"entry","type":"address","internalType":"address"}]},{"type":"error","name":"LinkedList_InvalidPage","inputs":[]},{"type":"error","name":"MaxOwnersReached","inputs":[]},{"type":"error","name":"NotInitialized","inputs":[{"name":"smartAccount","type":"address","internalType":"address"}]},{"type":"error","name":"NotSortedAndUnique","inputs":[]},{"type":"error","name":"ThresholdNotSet","inputs":[]},{"type":"error","name":"WrongContractSignature","inputs":[{"name":"contractSignature","type":"bytes","internalType":"bytes"}]},{"type":"error","name":"WrongContractSignatureFormat","inputs":[{"name":"s","type":"uint256","internalType":"uint256"},{"name":"contractSignatureLen","type":"uint256","internalType":"uint256"},{"name":"signaturesLen","type":"uint256","internalType":"uint256"}]}],"bytecode":{"object":"0x6080604052348015600e575f80fd5b506119e98061001c5f395ff3fe608060405234801561000f575f80fd5b50600436106100f0575f3560e01c80639700320311610093578063ecd0596111610063578063ecd059611461024d578063f551e2ee14610260578063fbe5ce0a1461028c578063fd8b84b11461029f575f80fd5b806397003203146101c4578063c86ec2bf146101e5578063ccfdec8c14610204578063d60b347f14610223575f80fd5b80637065cb48116100ce5780637065cb48146101685780638a91b0e31461017b578063940d38401461018e578063960bfe04146101b1575f80fd5b806306fdde03146100f457806354fd4d50146101325780636d61fe7014610153575b5f80fd5b60408051808201909152601081526f27bbb730b13632ab30b634b230ba37b960811b60208201525b6040516101299190611535565b60405180910390f35b6040805180820190915260058152640312e302e360dc1b602082015261011c565b610166610161366004611593565b6102bf565b005b6101666101763660046115e8565b61044b565b610166610189366004611593565b610566565b6101a161019c366004611601565b6105c3565b6040519015158152602001610129565b6101666101bf366004611675565b610704565b6101d76101d236600461168c565b6107df565b604051908152602001610129565b6101d76101f33660046115e8565b60016020525f908152604090205481565b6101d76102123660046115e8565b60026020525f908152604090205481565b6101a16102313660046115e8565b6001600160a01b03165f90815260016020526040902054151590565b6101a161025b366004611675565b610822565b61027361026e3660046116d3565b610834565b6040516001600160e01b03199091168152602001610129565b61016661029a366004611729565b61086f565b6102b26102ad3660046115e8565b610921565b604051610129919061175a565b5f806102cd838501856117ba565b915091506102da81610938565b6102f75760405163e719027360e01b815260040160405180910390fd5b815f03610317576040516306968de960e31b815260040160405180910390fd5b80518281101561033a5760405163aabd5a0960e01b815260040160405180910390fd5b335f81815260016020908152604090912085905582111561036e57604051632414149d60e01b815260040160405180910390fd5b6001600160a01b0381165f9081526002602052604081208390556103929082610942565b5f5b8281101561040f575f8482815181106103af576103af611886565b602002602001015190505f6001600160a01b0316816001600160a01b0316036103fb5760405163b20f76e360e01b81526001600160a01b03821660048201526024015b60405180910390fd5b6104065f84836109bb565b50600101610394565b506040516001600160a01b038216907f27b541a16df0902e262f34789782092ab25125513b8ed73608e802951771b928905f90a2505050505050565b335f818152600160205260409020546104825760405163f91bd6f160e01b81526001600160a01b03821660048201526024016103f2565b6001600160a01b0382166104b45760405163b20f76e360e01b81526001600160a01b03831660048201526024016103f2565b6001600160a01b0381165f90815260026020908152604090912054106104ed57604051632414149d60e01b815260040160405180910390fd5b6001600160a01b0381165f908152600260205260408120805491610510836118ae565b9091555061052190505f82846109bb565b6040516001600160a01b0383811682528216907fc82bdbbf677a2462f2a7e22e4ba9abd209496b69cd7b868b3b1d28f76e09a40a906020015b60405180910390a25050565b336105715f82610aae565b6001600160a01b0381165f8181526001602090815260408083208390556002909152808220829055517f9d00629762554452d03c3b45626436df6ca1c3795d05d04df882f6db481b1be09190a2505050565b5f80806105d2848601866117ba565b915091506105df81610938565b6105ed575f925050506106fb565b815f036105fe575f925050506106fb565b5f61066d6106308a6020527b19457468657265756d205369676e6564204d6573736167653a0a33325f52603c60042090565b89898080601f0160208091040260200160405190810160405280939291908181526020018383808284375f92019190915250889250610b20915050565b905061067881610e09565b61068181610e15565b80515f90815b818110156106dc575f6106bc8583815181106106a5576106a5611886565b602002602001015187610e1e90919063ffffffff16565b50905080156106d357836106cf816118ae565b9450505b50600101610687565b508482106106f2576001955050505050506106fb565b5f955050505050505b95945050505050565b335f8181526001602052604090205461073b5760405163f91bd6f160e01b81526001600160a01b03821660048201526024016103f2565b815f0361075b5760405163aabd5a0960e01b815260040160405180910390fd5b6001600160a01b0381165f908152600260205260409020548211156107935760405163aabd5a0960e01b815260040160405180910390fd5b6001600160a01b0381165f8181526001602052604090819020849055517ff7e18aa0532694077d6fc7df02e85d86b91ba964f958d1949d45c5776d36eb6e9061055a9085815260200190565b5f806108056107f160208601866115e8565b846108006101008801886118c6565b610e3f565b90508015610816575f91505061081c565b60019150505b92915050565b5f600182148061081c57505060071490565b5f8061084233868686610e3f565b9050801561085a5750630b135d3f60e11b9050610867565b506001600160e01b031990505b949350505050565b335f81815260016020908152604080832054600290925290912054036108a857604051630f368a7560e11b815260040160405180910390fd5b6108b45f828585610f64565b6001600160a01b0381165f9081526002602052604081208054916108d783611909565b90915550506040516001600160a01b0383811682528216907fe594d081b4382713733fe631966432c9cea5199afb2db5c3c1931f9f930036799060200160405180910390a2505050565b60606109315f8360016020611059565b5092915050565b5f61081c82611219565b60015f908152602083815260408083206001600160a01b0380861685529252909120541615610984576040516329e42f3360e11b815260040160405180910390fd5b60015f818152602093845260408082206001600160a01b0394909416825292909352912080546001600160a01b0319169091179055565b6001600160a01b03811615806109da57506001600160a01b0381166001145b15610a0357604051637c84ecfb60e01b81526001600160a01b03821660048201526024016103f2565b6001600160a01b038181165f9081526020858152604080832086851684529091529020541615610a5157604051631034f46960e21b81526001600160a01b03821660048201526024016103f2565b60015f908152602084815260408083206001600160a01b039586168085528184528285208054968816808752988552838620918652908452919093208054949095166001600160a01b031994851617909455528154169091179055565b60015f908152602083815260408083206001600160a01b038581168552925290912054165b6001600160a01b03811615610b1b576001600160a01b039081165f908152602084815260408083208585168452909152902080546001600160a01b0319811690915516610ad3565b505050565b60605f610b2e83604161191e565b84519091508367ffffffffffffffff811115610b4c57610b4c6117a6565b604051908082528060200260200182016040528015610b75578160200160208202803683370190505b50925081811015610b9957604051638baa579f60e01b815260040160405180910390fd5b5f5b84811015610dff575f805f80610bc88a8660410201602081015160408201516060909201515f1a92909190565b9250925092508260ff165f03610d5f579092508290610be889604161191e565b811015610c18576040516338a245ff60e11b8152600481018290525f6024820181905260448201526064016103f2565b85610c24826020611935565b1115610c53576040516338a245ff60e11b8152600481018290525f6024820152604481018790526064016103f2565b6020818b018101519087908290610c6b908590611935565b610c759190611935565b1115610ca5576040516338a245ff60e11b81526004810183905260248101829052604481018890526064016103f2565b60606020838d01019050631626ba7e60e01b6001600160e01b031916866001600160a01b0316631626ba7e8f846040518363ffffffff1660e01b8152600401610cef929190611948565b602060405180830381865afa158015610d0a573d5f803e3d5ffd5b505050506040513d601f19601f82011682018060405250810190610d2e9190611960565b6001600160e01b03191614610d58578060405163605d348960e01b81526004016103f29190611535565b5050610dc4565b601e8360ff161115610db557610dae610d9c8c6020527b19457468657265756d205369676e6564204d6573736167653a0a33325f52603c60042090565b610da7600486611987565b8484611251565b9350610dc4565b610dc18b848484611251565b93505b83888681518110610dd757610dd7611886565b6001600160a01b0390921660209283029190910190910152505060019092019150610b9b9050565b5050509392505050565b610e128161128b565b50565b610e128161141b565b5f80610e3484846001600160a01b03165f611464565b909590945092505050565b6001600160a01b0384165f90815260016020526040812054808203610e67575f915050610867565b5f610ed6610e99876020527b19457468657265756d205369676e6564204d6573736167653a0a33325f52603c60042090565b86868080601f0160208091040260200160405190810160405280939291908181526020018383808284375f92019190915250879250610b20915050565b9050610ee181610e09565b610eea81610e15565b80515f90815b81811015610f4157610f268a858381518110610f0e57610f0e611886565b60200260200101515f6114c59092919063ffffffff16565b15610f395782610f35816118ae565b9350505b600101610ef0565b50838210610f56576001945050505050610867565b505f98975050505050505050565b6001600160a01b0381161580610f8357506001600160a01b0381166001145b15610fac57604051637c84ecfb60e01b81526001600160a01b03831660048201526024016103f2565b6001600160a01b038281165f908152602086815260408083208785168452909152902054811690821614610ffe57604051637c84ecfb60e01b81526001600160a01b03821660048201526024016103f2565b6001600160a01b039081165f908152602085815260408083209584168084528683528184208054968616855297835281842090845282529091208054939092166001600160a01b031993841617909155919091528154169055565b60605f6001600160a01b03841660011480159061107e575061107c8686866114c5565b155b156110a757604051637c84ecfb60e01b81526001600160a01b03851660048201526024016103f2565b825f036110c75760405163f725081760e01b815260040160405180910390fd5b8267ffffffffffffffff8111156110e0576110e06117a6565b604051908082528060200260200182016040528015611109578160200160208202803683370190505b506001600160a01b038086165f908152602089815260408083208a85168452909152812054929450911691505b6001600160a01b0382161580159061115857506001600160a01b038216600114155b801561116357508381105b156111c7578183828151811061117b5761117b611886565b6001600160a01b039283166020918202929092018101919091529281165f90815288845260408082208984168352909452929092205490911690806111bf816118ae565b915050611136565b6001600160a01b0382166001148015906111e057505f81115b1561120c57826111f16001836119a0565b8151811061120157611201611886565b602002602001015191505b8083525094509492505050565b805160019060021161124c57815160051b82016020830192505b8251602090930180519093109150808318820261123357505b919050565b5f604051855f5260ff851660205283604052826060526020604060805f60015afa505f6060523d6060185191508060405250949350505050565b611389565b610180828403116112f3576020820180518351106112b15780518351825283525b5b6020018381116112ed57805182820180518281116112d2575050506112b2565b5b6020820152830180518281116112d35750602001526112b2565b50505050565b81601f1683830160061c60051b018251815180821061130e57905b85518082106113235790818310611323579091905b865282528352518390835b5b6020018051821161132f57825b84018051831061133c5792508281101561135d57805183518252835261132e565b505083602082011461137757611377846020830184611290565b8281146112ed576112ed818484611290565b80516002811061141757601f19602083018260051b8401805b805181850151116113b45783016113a2565b8281116113c357505050505050565b50805b805181850151106113d85783016113c6565b828111611401575b8251825184528252602090920191908301908183106113e057505050505050565b505f8552611410818385611290565b5050508082525b5050565b6002815110610e12576020810160408201600183510160051b83015b815183511461144b57602083019250815183525b60208201915080820361143757505081900360051c9052565b5f805f19600186515f87870197505b81830160011c94508460051b89015187019050878114828411176114ad578088116114a2578385019150611473565b600185019250611473565b84151597148716989290930190950295509350505050565b5f60016001600160a01b038316148015906108675750506001600160a01b039081165f9081526020938452604080822093831682529290935291205416151590565b5f81518084528060208401602086015e5f602082860101526020601f19601f83011685010191505092915050565b602081525f6115476020830184611507565b9392505050565b5f8083601f84011261155e575f80fd5b50813567ffffffffffffffff811115611575575f80fd5b60208301915083602082850101111561158c575f80fd5b9250929050565b5f80602083850312156115a4575f80fd5b823567ffffffffffffffff8111156115ba575f80fd5b6115c68582860161154e565b90969095509350505050565b80356001600160a01b038116811461124c575f80fd5b5f602082840312156115f8575f80fd5b611547826115d2565b5f805f805f60608688031215611615575f80fd5b85359450602086013567ffffffffffffffff80821115611633575f80fd5b61163f89838a0161154e565b90965094506040880135915080821115611657575f80fd5b506116648882890161154e565b969995985093965092949392505050565b5f60208284031215611685575f80fd5b5035919050565b5f806040838503121561169d575f80fd5b823567ffffffffffffffff8111156116b3575f80fd5b830161012081860312156116c5575f80fd5b946020939093013593505050565b5f805f80606085870312156116e6575f80fd5b6116ef856115d2565b935060208501359250604085013567ffffffffffffffff811115611711575f80fd5b61171d8782880161154e565b95989497509550505050565b5f806040838503121561173a575f80fd5b611743836115d2565b9150611751602084016115d2565b90509250929050565b602080825282518282018190525f9190848201906040850190845b8181101561179a5783516001600160a01b031683529284019291840191600101611775565b50909695505050505050565b634e487b7160e01b5f52604160045260245ffd5b5f80604083850312156117cb575f80fd5b8235915060208084013567ffffffffffffffff808211156117ea575f80fd5b818601915086601f8301126117fd575f80fd5b81358181111561180f5761180f6117a6565b8060051b604051601f19603f83011681018181108582111715611834576118346117a6565b604052918252848201925083810185019189831115611851575f80fd5b938501935b8285101561187657611867856115d2565b84529385019392850192611856565b8096505050505050509250929050565b634e487b7160e01b5f52603260045260245ffd5b634e487b7160e01b5f52601160045260245ffd5b5f600182016118bf576118bf61189a565b5060010190565b5f808335601e198436030181126118db575f80fd5b83018035915067ffffffffffffffff8211156118f5575f80fd5b60200191503681900382131561158c575f80fd5b5f816119175761191761189a565b505f190190565b808202811582820484141761081c5761081c61189a565b8082018082111561081c5761081c61189a565b828152604060208201525f6108676040830184611507565b5f60208284031215611970575f80fd5b81516001600160e01b031981168114611547575f80fd5b60ff828116828216039081111561081c5761081c61189a565b8181038181111561081c5761081c61189a56fea264697066735822122052fb4867ac0416e8dbbc914a56f2cf6d5ca6100dfae26eabee50b57d3907de5164736f6c63430008190033","linkReferences":{}},"methodIdentifiers":{"addOwner(address)":"7065cb48","getOwners(address)":"fd8b84b1","isInitialized(address)":"d60b347f","isModuleType(uint256)":"ecd05961","isValidSignatureWithSender(address,bytes32,bytes)":"f551e2ee","name()":"06fdde03","onInstall(bytes)":"6d61fe70","onUninstall(bytes)":"8a91b0e3","ownerCount(address)":"ccfdec8c","removeOwner(address,address)":"fbe5ce0a","setThreshold(uint256)":"960bfe04","threshold(address)":"c86ec2bf","validateSignatureWithData(bytes32,bytes,bytes)":"940d3840","validateUserOp((address,uint256,bytes,bytes,bytes32,uint256,bytes32,bytes,bytes),bytes32)":"97003203","version()":"54fd4d50"},"id":237}