{"abi":[{"type":"function","name":"accountJobCount","inputs":[{"name":"smartAccount","type":"address","internalType":"address"}],"outputs":[{"name":"jobCount","type":"uint256","internalType":"uint256"}],"stateMutability":"view"},{"type":"function","name":"addOrder","inputs":[{"name":"orderData","type":"bytes","internalType":"bytes"}],"outputs":[],"stateMutability":"nonpayable"},{"type":"function","name":"executeOrder","inputs":[{"name":"jobId","type":"uint256","internalType":"uint256"}],"outputs":[],"stateMutability":"nonpayable"},{"type":"function","name":"executionLog","inputs":[{"name":"smartAccount","type":"address","internalType":"address"},{"name":"jobId","type":"uint256","internalType":"uint256"}],"outputs":[{"name":"executeInterval","type":"uint48","internalType":"uint48"},{"name":"numberOfExecutions","type":"uint16","internalType":"uint16"},{"name":"numberOfExecutionsCompleted","type":"uint16","internalType":"uint16"},{"name":"startDate","type":"uint48","internalType":"uint48"},{"name":"isEnabled","type":"bool","internalType":"bool"},{"name":"lastExecutionTime","type":"uint48","internalType":"uint48"},{"name":"executionData","type":"bytes","internalType":"bytes"}],"stateMutability":"view"},{"type":"function","name":"isInitialized","inputs":[{"name":"smartAccount","type":"address","internalType":"address"}],"outputs":[{"name":"","type":"bool","internalType":"bool"}],"stateMutability":"view"},{"type":"function","name":"isModuleType","inputs":[{"name":"typeID","type":"uint256","internalType":"uint256"}],"outputs":[{"name":"","type":"bool","internalType":"bool"}],"stateMutability":"pure"},{"type":"function","name":"name","inputs":[],"outputs":[{"name":"","type":"string","internalType":"string"}],"stateMutability":"pure"},{"type":"function","name":"onInstall","inputs":[{"name":"data","type":"bytes","internalType":"bytes"}],"outputs":[],"stateMutability":"nonpayable"},{"type":"function","name":"onUninstall","inputs":[{"name":"","type":"bytes","internalType":"bytes"}],"outputs":[],"stateMutability":"nonpayable"},{"type":"function","name":"toggleOrder","inputs":[{"name":"jobId","type":"uint256","internalType":"uint256"}],"outputs":[],"stateMutability":"nonpayable"},{"type":"function","name":"version","inputs":[],"outputs":[{"name":"","type":"string","internalType":"string"}],"stateMutability":"pure"},{"type":"event","name":"ExecutionAdded","inputs":[{"name":"smartAccount","type":"address","indexed":true,"internalType":"address"},{"name":"jobId","type":"uint256","indexed":true,"internalType":"uint256"}],"anonymous":false},{"type":"event","name":"ExecutionStatusUpdated","inputs":[{"name":"smartAccount","type":"address","indexed":true,"internalType":"address"},{"name":"jobId","type":"uint256","indexed":true,"internalType":"uint256"}],"anonymous":false},{"type":"event","name":"ExecutionTriggered","inputs":[{"name":"smartAccount","type":"address","indexed":true,"internalType":"address"},{"name":"jobId","type":"uint256","indexed":true,"internalType":"uint256"}],"anonymous":false},{"type":"event","name":"ExecutionsCancelled","inputs":[{"name":"smartAccount","type":"address","indexed":true,"internalType":"address"}],"anonymous":false},{"type":"error","name":"AlreadyInitialized","inputs":[{"name":"smartAccount","type":"address","internalType":"address"}]},{"type":"error","name":"ERC20TransferFailed","inputs":[]},{"type":"error","name":"InvalidExecution","inputs":[]},{"type":"error","name":"NotInitialized","inputs":[{"name":"smartAccount","type":"address","internalType":"address"}]},{"type":"error","name":"SafeERC20TransferFailed","inputs":[]}],"bytecode":{"object":"0x6080604052348015600e575f80fd5b506112548061001c5f395ff3fe608060405234801561000f575f80fd5b50600436106100a6575f3560e01c80638a91b0e31161006e5780638a91b0e3146101595780638eda33d31461016c57806394f6113414610199578063a3d6df42146101ac578063d60b347f146101bf578063ecd05961146101f9575f80fd5b806306fdde03146100aa578063548dbd71146100ea57806354fd4d50146101105780636d61fe70146101315780638805cbd214610146575b5f80fd5b6040805180820190915260128152715363686564756c65645472616e736665727360701b60208201525b6040516100e19190610c53565b60405180910390f35b6100fd6100f8366004610c80565b61020d565b6040516100e19796959493929190610caa565b6040805180820190915260058152640312e302e360dc1b60208201526100d4565b61014461013f366004610d03565b6102f9565b005b610144610154366004610d6f565b610307565b610144610167366004610d03565b6103a4565b61018b61017a366004610d86565b60016020525f908152604090205481565b6040519081526020016100e1565b6101446101a7366004610d6f565b6103ac565b6101446101ba366004610d03565b610543565b6101e96101cd366004610d86565b6001600160a01b03165f90815260016020526040902054151590565b60405190151581526020016100e1565b6101e9610207366004610d6f565b60021490565b5f6020818152928152604080822090935290815220805460018201805465ffffffffffff8084169461ffff600160301b8604811695600160401b810490911694600160501b820484169460ff600160801b84041694600160881b909304909216929161027890610da1565b80601f01602080910402602001604051908101604052809291908181526020018280546102a490610da1565b80156102ef5780601f106102c6576101008083540402835291602001916102ef565b820191905f5260205f20905b8154815290600101906020018083116102d257829003601f168201915b5050505050905087565b610303828261058e565b5050565b335f81815260208181526040808320858452909152812080549091600160301b90910461ffff16900361034d576040516329adbb2960e01b815260040160405180910390fd5b805460ff60801b198116600160801b9182900460ff161590910217815560405183906001600160a01b038416907f4e18125ae9768c1a406b877d8836a624ebaa0a04994069ebfd8436c18b2f082f905f90a3505050565b6103036105c6565b806103b681610677565b335f908152602081815260408083208584529091529020805465ffffffffffff60881b1916600160881b4265ffffffffffff160217808255600190829060089061040c908490600160401b900461ffff16610ded565b92506101000a81548161ffff021916908361ffff1602179055505f805f83600101805461043890610da1565b80601f016020809104026020016040519081016040528092919081815260200182805461046490610da1565b80156104af5780601f10610486576101008083540402835291602001916104af565b820191905f5260205f20905b81548152906001019060200180831161049257829003601f168201915b50505050508060200190518101906104c79190610e0f565b919450925090506001600160a01b0382166104fb576104f5838260405180602001604052805f815250610765565b5061050f565b61050f6001600160a01b038316848361077b565b604051869033907fb96859dbec9de56526b77118cd2561f267d2f5f96f666f54946532170fe3be44905f90a3505050505050565b335f8181526001602052604090205461057f5760405163f91bd6f160e01b81526001600160a01b03821660048201526024015b60405180910390fd5b6105898383610787565b505050565b335f818152600160205260409020541561057f576040516393360fbf60e01b81526001600160a01b0382166004820152602401610576565b335f81815260016020819052604090912054905b818111610632576001600160a01b0383165f90815260208181526040808320848452909152812080546001600160b81b03191681559061061d6001830182610bd3565b5050808061062a90610e4f565b9150506105da565b506001600160a01b0382165f81815260016020526040808220829055517fd36f1e173abc6614f68eb2f836abf163f8f5acfcc26756e20be3c703488ed1229190a25050565b335f9081526020818152604080832084845290915290208054600160801b900460ff166106b7576040516329adbb2960e01b815260040160405180910390fd5b805442906106d79065ffffffffffff80821691600160881b900416610e67565b65ffffffffffff1611156106fe576040516329adbb2960e01b815260040160405180910390fd5b805461ffff600160301b82048116600160401b9092041610610733576040516329adbb2960e01b815260040160405180910390fd5b805442600160501b90910465ffffffffffff161115610303576040516329adbb2960e01b815260040160405180910390fd5b6060610773338585856109e1565b949350505050565b61058983338484610a90565b335f8181526001602081905260408220546107a191610e86565b6001600160a01b0383165f9081526001602052604081208054929350906107c783610e4f565b909155505f90506107dc600860068688610e9f565b6107e591610ec6565b60f01c90505f81900361080b576040516329adbb2960e01b815260040160405180910390fd5b6040805160e081019091528061082460065f888a610e9f565b61082d91610ef6565b60d01c815261ffff831660208201525f6040820152606001610853600e6008888a610e9f565b61085c91610ef6565b60d01c8152600160208201525f604082015260600161087e86600e818a610e9f565b8080601f0160208091040260200160405190810160405280939291908181526020018383808284375f9201829052509390945250506001600160a01b0386168152602081815260408083208784528252918290208451815492860151938601516060870151608088015160a089015165ffffffffffff94851667ffffffffffffffff1990971696909617600160301b61ffff98891602176fffffffffffffffff00000000000000001916600160401b979093169690960265ffffffffffff60501b191691909117600160501b918316919091021766ffffffffffffff60801b1916600160801b9415159490940265ffffffffffff60881b191693909317600160881b939092169290920217815560c083015190915060018201906109a29082610f7c565b50506040518391506001600160a01b038516907fa0040a18a6bc952417eda9c747097db88239fa30568c9c41a762001bbd2328e7905f90a35050505050565b60605f6109f081808080610b3a565b9050856001600160a01b031663d691c96482610a0d888888610ba4565b6040518363ffffffff1660e01b8152600401610a2a929190611038565b5f604051808303815f875af1158015610a45573d5f803e3d5ffd5b505050506040513d5f823e601f3d908101601f19168201604052610a6c9190810190611081565b5f81518110610a7d57610a7d61118f565b6020026020010151915050949350505050565b6040516001600160a01b0383166024820152604481018290525f90610af2908690839060640160408051601f198184030181529190526020810180516001600160e01b031663a9059cbb60e01b1790526001600160a01b0388169291906109e1565b905080515f14610b33575f81806020019051810190610b1191906111a3565b905080610b315760405163116cdb0360e31b815260040160405180910390fd5b505b5050505050565b604080516001600160f81b03198087166020830152851660218201525f602282018190526001600160e01b03198516602683015269ffffffffffffffffffff198416602a8301529101604051602081830303815290604052610b9b906111c2565b95945050505050565b6060838383604051602001610bbb939291906111e5565b60405160208183030381529060405290509392505050565b508054610bdf90610da1565b5f825580601f10610bee575050565b601f0160209004905f5260205f2090810190610c0a9190610c0d565b50565b5b80821115610c21575f8155600101610c0e565b5090565b5f81518084528060208401602086015e5f602082860101526020601f19601f83011685010191505092915050565b602081525f610c656020830184610c25565b9392505050565b6001600160a01b0381168114610c0a575f80fd5b5f8060408385031215610c91575f80fd5b8235610c9c81610c6c565b946020939093013593505050565b65ffffffffffff888116825261ffff88811660208401528716604083015285811660608301528415156080830152831660a082015260e060c082018190525f90610cf690830184610c25565b9998505050505050505050565b5f8060208385031215610d14575f80fd5b823567ffffffffffffffff80821115610d2b575f80fd5b818501915085601f830112610d3e575f80fd5b813581811115610d4c575f80fd5b866020828501011115610d5d575f80fd5b60209290920196919550909350505050565b5f60208284031215610d7f575f80fd5b5035919050565b5f60208284031215610d96575f80fd5b8135610c6581610c6c565b600181811c90821680610db557607f821691505b602082108103610dd357634e487b7160e01b5f52602260045260245ffd5b50919050565b634e487b7160e01b5f52601160045260245ffd5b61ffff818116838216019080821115610e0857610e08610dd9565b5092915050565b5f805f60608486031215610e21575f80fd5b8351610e2c81610c6c565b6020850151909350610e3d81610c6c565b80925050604084015190509250925092565b5f60018201610e6057610e60610dd9565b5060010190565b65ffffffffffff818116838216019080821115610e0857610e08610dd9565b80820180821115610e9957610e99610dd9565b92915050565b5f8085851115610ead575f80fd5b83861115610eb9575f80fd5b5050820193919092039150565b6001600160f01b03198135818116916002851015610eee5780818660020360031b1b83161692505b505092915050565b6001600160d01b03198135818116916006851015610eee5760069490940360031b84901b1690921692915050565b634e487b7160e01b5f52604160045260245ffd5b601f82111561058957805f5260205f20601f840160051c81016020851015610f5d5750805b601f840160051c820191505b81811015610b33575f8155600101610f69565b815167ffffffffffffffff811115610f9657610f96610f24565b610faa81610fa48454610da1565b84610f38565b602080601f831160018114610fdd575f8415610fc65750858301515b5f19600386901b1c1916600185901b178555610b31565b5f85815260208120601f198616915b8281101561100b57888601518255948401946001909101908401610fec565b508582101561102857878501515f19600388901b60f8161c191681555b5050505050600190811b01905550565b828152604060208201525f6107736040830184610c25565b604051601f8201601f1916810167ffffffffffffffff8111828210171561107957611079610f24565b604052919050565b5f6020808385031215611092575f80fd5b825167ffffffffffffffff808211156110a9575f80fd5b8185019150601f86601f8401126110be575f80fd5b8251828111156110d0576110d0610f24565b8060051b6110df868201611050565b918252848101860191868101908a8411156110f8575f80fd5b87870192505b8383101561118157825186811115611114575f80fd5b8701603f81018c13611124575f80fd5b8881015160408882111561113a5761113a610f24565b61114b828901601f19168c01611050565b8281528e8284860101111561115e575f80fd5b828285018d83015e5f9281018c01929092525083525091870191908701906110fe565b9a9950505050505050505050565b634e487b7160e01b5f52603260045260245ffd5b5f602082840312156111b3575f80fd5b81518015158114610c65575f80fd5b80516020808301519190811015610dd3575f1960209190910360031b1b16919050565b6bffffffffffffffffffffffff198460601b1681528260148201525f82518060208501603485015e5f920160340191825250939250505056fea2646970667358221220a01c2168f78d8930ddefbcf1cc1a013b429d135370a8586c2cf1f6a2f03c34ca64736f6c63430008190033","linkReferences":{}},"methodIdentifiers":{"accountJobCount(address)":"8eda33d3","addOrder(bytes)":"a3d6df42","executeOrder(uint256)":"94f61134","executionLog(address,uint256)":"548dbd71","isInitialized(address)":"d60b347f","isModuleType(uint256)":"ecd05961","name()":"06fdde03","onInstall(bytes)":"6d61fe70","onUninstall(bytes)":"8a91b0e3","toggleOrder(uint256)":"8805cbd2","version()":"54fd4d50"},"id":240}