{"abi":[{"type":"function","name":"_swapRouters","inputs":[{"name":"account","type":"address","internalType":"address"}],"outputs":[{"name":"swaprouter","type":"address","internalType":"address"}],"stateMutability":"view"},{"type":"function","name":"accountJobCount","inputs":[{"name":"smartAccount","type":"address","internalType":"address"}],"outputs":[{"name":"jobCount","type":"uint256","internalType":"uint256"}],"stateMutability":"view"},{"type":"function","name":"addOrder","inputs":[{"name":"orderData","type":"bytes","internalType":"bytes"}],"outputs":[],"stateMutability":"nonpayable"},{"type":"function","name":"checkTokenOrder","inputs":[{"name":"tokenSwappedFrom","type":"address","internalType":"address"},{"name":"poolAddress","type":"address","internalType":"address"}],"outputs":[{"name":"swapToken0to1","type":"bool","internalType":"bool"}],"stateMutability":"view"},{"type":"function","name":"executeOrder","inputs":[{"name":"jobId","type":"uint256","internalType":"uint256"},{"name":"sqrtPriceLimitX96","type":"uint160","internalType":"uint160"},{"name":"amountOutMinimum","type":"uint256","internalType":"uint256"},{"name":"fee","type":"uint24","internalType":"uint24"}],"outputs":[],"stateMutability":"nonpayable"},{"type":"function","name":"executionLog","inputs":[{"name":"smartAccount","type":"address","internalType":"address"},{"name":"jobId","type":"uint256","internalType":"uint256"}],"outputs":[{"name":"executeInterval","type":"uint48","internalType":"uint48"},{"name":"numberOfExecutions","type":"uint16","internalType":"uint16"},{"name":"numberOfExecutionsCompleted","type":"uint16","internalType":"uint16"},{"name":"startDate","type":"uint48","internalType":"uint48"},{"name":"isEnabled","type":"bool","internalType":"bool"},{"name":"lastExecutionTime","type":"uint48","internalType":"uint48"},{"name":"executionData","type":"bytes","internalType":"bytes"}],"stateMutability":"view"},{"type":"function","name":"getPoolAddress","inputs":[{"name":"factoryAddress","type":"address","internalType":"address"},{"name":"token0","type":"address","internalType":"address"},{"name":"token1","type":"address","internalType":"address"},{"name":"fee","type":"uint24","internalType":"uint24"}],"outputs":[{"name":"poolAddress","type":"address","internalType":"address"}],"stateMutability":"view"},{"type":"function","name":"getSqrtPriceX96","inputs":[{"name":"poolAddress","type":"address","internalType":"address"}],"outputs":[{"name":"sqrtPriceX96","type":"uint160","internalType":"uint160"}],"stateMutability":"view"},{"type":"function","name":"isInitialized","inputs":[{"name":"smartAccount","type":"address","internalType":"address"}],"outputs":[{"name":"","type":"bool","internalType":"bool"}],"stateMutability":"view"},{"type":"function","name":"isModuleType","inputs":[{"name":"typeID","type":"uint256","internalType":"uint256"}],"outputs":[{"name":"","type":"bool","internalType":"bool"}],"stateMutability":"pure"},{"type":"function","name":"name","inputs":[],"outputs":[{"name":"","type":"string","internalType":"string"}],"stateMutability":"pure"},{"type":"function","name":"onInstall","inputs":[{"name":"data","type":"bytes","internalType":"bytes"}],"outputs":[],"stateMutability":"nonpayable"},{"type":"function","name":"onUninstall","inputs":[{"name":"","type":"bytes","internalType":"bytes"}],"outputs":[],"stateMutability":"nonpayable"},{"type":"function","name":"setSwapRouter","inputs":[{"name":"swapRouter","type":"address","internalType":"address"}],"outputs":[],"stateMutability":"nonpayable"},{"type":"function","name":"toggleOrder","inputs":[{"name":"jobId","type":"uint256","internalType":"uint256"}],"outputs":[],"stateMutability":"nonpayable"},{"type":"function","name":"version","inputs":[],"outputs":[{"name":"","type":"string","internalType":"string"}],"stateMutability":"pure"},{"type":"event","name":"ExecutionAdded","inputs":[{"name":"smartAccount","type":"address","indexed":true,"internalType":"address"},{"name":"jobId","type":"uint256","indexed":true,"internalType":"uint256"}],"anonymous":false},{"type":"event","name":"ExecutionStatusUpdated","inputs":[{"name":"smartAccount","type":"address","indexed":true,"internalType":"address"},{"name":"jobId","type":"uint256","indexed":true,"internalType":"uint256"}],"anonymous":false},{"type":"event","name":"ExecutionTriggered","inputs":[{"name":"smartAccount","type":"address","indexed":true,"internalType":"address"},{"name":"jobId","type":"uint256","indexed":true,"internalType":"uint256"}],"anonymous":false},{"type":"event","name":"ExecutionsCancelled","inputs":[{"name":"smartAccount","type":"address","indexed":true,"internalType":"address"}],"anonymous":false},{"type":"event","name":"SwapRouterInitialized","inputs":[{"name":"account","type":"address","indexed":false,"internalType":"address"},{"name":"swaprouter","type":"address","indexed":false,"internalType":"address"},{"name":"fee","type":"uint24","indexed":false,"internalType":"uint24"}],"anonymous":false},{"type":"error","name":"AlreadyInitialized","inputs":[{"name":"smartAccount","type":"address","internalType":"address"}]},{"type":"error","name":"InvalidExecution","inputs":[]},{"type":"error","name":"InvalidSqrtPriceLimitX96","inputs":[]},{"type":"error","name":"InvalidSqrtPriceX96","inputs":[]},{"type":"error","name":"InvalidSwapRouter","inputs":[{"name":"swaprouter","type":"address","internalType":"address"}]},{"type":"error","name":"NotInitialized","inputs":[{"name":"smartAccount","type":"address","internalType":"address"}]},{"type":"error","name":"PoolDoesNotExist","inputs":[]},{"type":"error","name":"Unauthorized","inputs":[]}],"bytecode":{"object":"0x6080604052348015600e575f80fd5b506119ae8061001c5f395ff3fe608060405234801561000f575f80fd5b50600436106100fb575f3560e01c80638a91b0e311610093578063d098d32011610063578063d098d32014610273578063d60b347f14610286578063ecd05961146102c0578063fd5fe53a146102d4575f80fd5b80638a91b0e31461020d5780638eda33d314610220578063a3d6df421461024d578063c32da55d14610260575f80fd5b8063548dbd71116100ce578063548dbd71146101a057806354fd4d50146101c65780636d61fe70146101e75780638805cbd2146101fa575f80fd5b806301873d8f146100ff57806306fdde03146101445780633522826414610178578063412736571461018b575b5f80fd5b61012761010d36600461113d565b60026020525f90815260409020546001600160a01b031681565b6040516001600160a01b0390911681526020015b60405180910390f35b60408051808201909152600f81526e5363686564756c65644f726465727360881b60208201525b60405161013b919061118d565b6101276101863660046111b6565b6102e7565b61019e61019936600461113d565b610398565b005b6101b36101ae36600461120d565b6103fd565b60405161013b9796959493929190611237565b6040805180820190915260058152640312e302e360dc1b602082015261016b565b61019e6101f5366004611290565b6104e9565b61019e6102083660046112fc565b610532565b61019e61021b366004611290565b6105cf565b61023f61022e36600461113d565b60016020525f908152604090205481565b60405190815260200161013b565b61019e61025b366004611290565b6105fc565b61019e61026e366004611313565b610642565b61012761028136600461113d565b610832565b6102b061029436600461113d565b6001600160a01b03165f90815260016020526040902054151590565b604051901515815260200161013b565b6102b06102ce3660046112fc565b60021490565b6102b06102e236600461134d565b6108a1565b604051630b4c774160e11b81526001600160a01b038481166004830152838116602483015262ffffff831660448301525f918691821690631698ee8290606401602060405180830381865afa158015610342573d5f803e3d5ffd5b505050506040513d601f19601f820116820180604052508101906103669190611384565b91506001600160a01b03821661038f576040516302721e1f60e61b815260040160405180910390fd5b50949350505050565b6001600160a01b0381166103cf5760405163d76b7b1f60e01b81526001600160a01b03821660048201526024015b60405180910390fd5b335f90815260026020526040902080546001600160a01b0319166001600160a01b0392909216919091179055565b5f6020818152928152604080822090935290815220805460018201805465ffffffffffff8084169461ffff600160301b8604811695600160401b810490911694600160501b820484169460ff600160801b84041694600160881b90930490921692916104689061139f565b80601f01602080910402602001604051908101604052809291908181526020018280546104949061139f565b80156104df5780601f106104b6576101008083540402835291602001916104df565b820191905f5260205f20905b8154815290600101906020018083116104c257829003601f168201915b5050505050905087565b5f6104f760148284866113d7565b610500916113fe565b60601c9050365f61051484601481886113d7565b9150915061052183610398565b61052b828261091b565b5050505050565b335f81815260208181526040808320858452909152812080549091600160301b90910461ffff169003610578576040516329adbb2960e01b815260040160405180910390fd5b805460ff60801b198116600160801b9182900460ff161590910217815560405183906001600160a01b038416907f4e18125ae9768c1a406b877d8836a624ebaa0a04994069ebfd8436c18b2f082f905f90a3505050565b6105f0335f90815260026020526040902080546001600160a01b0319169055565b6105f8610953565b5050565b335f818152600160205260409020546106335760405163f91bd6f160e01b81526001600160a01b03821660048201526024016103c6565b61063d8383610a04565b505050565b8361064c81610c5e565b335f908152602081815260408083208884529091528120600181018054919291829182916106799061139f565b80601f01602080910402602001604051908101604052809291908181526020018280546106a59061139f565b80156106f05780601f106106c7576101008083540402835291602001916106f0565b820191905f5260205f20905b8154815290600101906020018083116106d357829003601f168201915b50505050508060200190518101906107089190611433565b9250925092505f61071e338585858d8d8d610d4c565b855465ffffffffffff60881b1916600160881b4265ffffffffffff1602178087559091506001908690600890610760908490600160401b900461ffff16611487565b92506101000a81548161ffff021916908361ffff160217905550336001600160a01b031663d691c964610791610e1a565b61079a84610e30565b6040518363ffffffff1660e01b81526004016107b79291906114a9565b5f604051808303815f875af11580156107d2573d5f803e3d5ffd5b505050506040513d5f823e601f3d908101601f191682016040526107f99190810190611537565b506040518a9033907fb96859dbec9de56526b77118cd2561f267d2f5f96f666f54946532170fe3be44905f90a350505050505050505050565b5f808290505f816001600160a01b0316633850c7bd6040518163ffffffff1660e01b815260040160e060405180830381865afa158015610874573d5f803e3d5ffd5b505050506040513d601f19601f820116820180604052508101906108989190611675565b51949350505050565b5f80826001600160a01b0316630dfe16816040518163ffffffff1660e01b8152600401602060405180830381865afa1580156108df573d5f803e3d5ffd5b505050506040513d601f19601f820116820180604052508101906109039190611384565b6001600160a01b038581169116149150505b92915050565b335f8181526001602052604090205415610633576040516393360fbf60e01b81526001600160a01b03821660048201526024016103c6565b335f81815260016020819052604090912054905b8181116109bf576001600160a01b0383165f90815260208181526040808320848452909152812080546001600160b81b0319168155906109aa60018301826110af565b505080806109b79061170f565b915050610967565b506001600160a01b0382165f81815260016020526040808220829055517fd36f1e173abc6614f68eb2f836abf163f8f5acfcc26756e20be3c703488ed1229190a25050565b335f818152600160208190526040822054610a1e91611727565b6001600160a01b0383165f908152600160205260408120805492935090610a448361170f565b909155505f9050610a596008600686886113d7565b610a629161173a565b60f01c90505f819003610a88576040516329adbb2960e01b815260040160405180910390fd5b6040805160e0810190915280610aa160065f888a6113d7565b610aaa91611768565b60d01c815261ffff831660208201525f6040820152606001610ad0600e6008888a6113d7565b610ad991611768565b60d01c8152600160208201525f6040820152606001610afb86600e818a6113d7565b8080601f0160208091040260200160405190810160405280939291908181526020018383808284375f9201829052509390945250506001600160a01b0386168152602081815260408083208784528252918290208451815492860151938601516060870151608088015160a089015165ffffffffffff94851667ffffffffffffffff1990971696909617600160301b61ffff98891602176fffffffffffffffff00000000000000001916600160401b979093169690960265ffffffffffff60501b191691909117600160501b918316919091021766ffffffffffffff60801b1916600160801b9415159490940265ffffffffffff60881b191693909317600160881b939092169290920217815560c08301519091506001820190610c1f90826117da565b50506040518391506001600160a01b038516907fa0040a18a6bc952417eda9c747097db88239fa30568c9c41a762001bbd2328e7905f90a35050505050565b335f9081526020818152604080832084845290915290208054600160801b900460ff16610c9e576040516329adbb2960e01b815260040160405180910390fd5b80544290610cbe9065ffffffffffff80821691600160881b90041661189a565b65ffffffffffff161115610ce5576040516329adbb2960e01b815260040160405180910390fd5b805461ffff600160301b82048116600160401b9092041610610d1a576040516329adbb2960e01b815260040160405180910390fd5b805442600160501b90910465ffffffffffff1611156105f8576040516329adbb2960e01b815260040160405180910390fd5b60408051600380825260808201909252606091816020015b610d6c6110e9565b815260200190600190039081610d645750506001600160a01b038981165f90815260026020526040902054919250610da79189911687610e59565b825f81518110610db957610db96118b9565b6020026020010183600181518110610dd357610dd36118b9565b602002602001018290528290525050610df188888888888888610f1c565b81600281518110610e0457610e046118b9565b6020026020010181905250979650505050505050565b5f610e2b600160f81b828080611045565b905090565b606081604051602001610e4391906118cd565b6040516020818303038152906040529050919050565b610e616110e9565b610e696110e9565b505060408051606080820183526001600160a01b039586168083525f602080850182905285519790981660248089018290526044808a018490528751808b038201815260649a8b018952808c01805163095ea7b360e01b6001600160e01b039182168117909252898b019290925289519788018a52958752868c01949094528751918201929092528082019790975285518088039091018152959096018452958401805190951690951790935283015291565b610f246110e9565b836001600160a01b03165f03610f4d576040516312c2cab560e11b815260040160405180910390fd5b5060408051606080820183526001600160a01b03998a165f81815260026020908152858220548d168552808501919091528451610100810186529a8c16808c52998c168b820190815262ffffff9687168c8701908152938c019283524260808d0190815260a08d019a8b5260c08d01988952988d1660e0909c019b8c528551602481019b909b52518c1660448b015291519094166064890152925189166084880152935160a4870152935160c4860152905160e485015293519094166101048084019190915281518084039091018152610124909201815291810180516001600160e01b031663414bf38960e01b1790529082015290565b604080516001600160f81b03198087166020830152851660218201525f602282018190526001600160e01b03198516602683015269ffffffffffffffffffff198416602a83015291016040516020818303038152906040526110a690611955565b95945050505050565b5080546110bb9061139f565b5f825580601f106110ca575050565b601f0160209004905f5260205f20908101906110e69190611111565b50565b60405180606001604052805f6001600160a01b031681526020015f8152602001606081525090565b5b80821115611125575f8155600101611112565b5090565b6001600160a01b03811681146110e6575f80fd5b5f6020828403121561114d575f80fd5b813561115881611129565b9392505050565b5f81518084528060208401602086015e5f602082860101526020601f19601f83011685010191505092915050565b602081525f611158602083018461115f565b803562ffffff811681146111b1575f80fd5b919050565b5f805f80608085870312156111c9575f80fd5b84356111d481611129565b935060208501356111e481611129565b925060408501356111f481611129565b91506112026060860161119f565b905092959194509250565b5f806040838503121561121e575f80fd5b823561122981611129565b946020939093013593505050565b65ffffffffffff888116825261ffff88811660208401528716604083015285811660608301528415156080830152831660a082015260e060c082018190525f906112839083018461115f565b9998505050505050505050565b5f80602083850312156112a1575f80fd5b823567ffffffffffffffff808211156112b8575f80fd5b818501915085601f8301126112cb575f80fd5b8135818111156112d9575f80fd5b8660208285010111156112ea575f80fd5b60209290920196919550909350505050565b5f6020828403121561130c575f80fd5b5035919050565b5f805f8060808587031215611326575f80fd5b84359350602085013561133881611129565b9250604085013591506112026060860161119f565b5f806040838503121561135e575f80fd5b823561136981611129565b9150602083013561137981611129565b809150509250929050565b5f60208284031215611394575f80fd5b815161115881611129565b600181811c908216806113b357607f821691505b6020821081036113d157634e487b7160e01b5f52602260045260245ffd5b50919050565b5f80858511156113e5575f80fd5b838611156113f1575f80fd5b5050820193919092039150565b6bffffffffffffffffffffffff19813581811691601485101561142b5780818660140360031b1b83161692505b505092915050565b5f805f60608486031215611445575f80fd5b835161145081611129565b602085015190935061146181611129565b80925050604084015190509250925092565b634e487b7160e01b5f52601160045260245ffd5b61ffff8181168382160190808211156114a2576114a2611473565b5092915050565b828152604060208201525f6114c1604083018461115f565b949350505050565b634e487b7160e01b5f52604160045260245ffd5b60405160e0810167ffffffffffffffff81118282101715611500576115006114c9565b60405290565b604051601f8201601f1916810167ffffffffffffffff8111828210171561152f5761152f6114c9565b604052919050565b5f6020808385031215611548575f80fd5b825167ffffffffffffffff8082111561155f575f80fd5b8185019150601f86601f840112611574575f80fd5b825182811115611586576115866114c9565b8060051b611595868201611506565b918252848101860191868101908a8411156115ae575f80fd5b87870192505b83831015611637578251868111156115ca575f80fd5b8701603f81018c136115da575f80fd5b888101516040888211156115f0576115f06114c9565b611601828901601f19168c01611506565b8281528e82848601011115611614575f80fd5b828285018d83015e5f9281018c01929092525083525091870191908701906115b4565b9a9950505050505050505050565b805161ffff811681146111b1575f80fd5b805160ff811681146111b1575f80fd5b805180151581146111b1575f80fd5b5f60e08284031215611685575f80fd5b61168d6114dd565b825161169881611129565b81526020830151600281900b81146116ae575f80fd5b60208201526116bf60408401611645565b60408201526116d060608401611645565b60608201526116e160808401611645565b60808201526116f260a08401611656565b60a082015261170360c08401611666565b60c08201529392505050565b5f6001820161172057611720611473565b5060010190565b8082018082111561091557610915611473565b6001600160f01b0319813581811691600285101561142b5760029490940360031b84901b1690921692915050565b6001600160d01b0319813581811691600685101561142b5760069490940360031b84901b1690921692915050565b601f82111561063d57805f5260205f20601f840160051c810160208510156117bb5750805b601f840160051c820191505b8181101561052b575f81556001016117c7565b815167ffffffffffffffff8111156117f4576117f46114c9565b61180881611802845461139f565b84611796565b602080601f83116001811461183b575f84156118245750858301515b5f19600386901b1c1916600185901b178555611892565b5f85815260208120601f198616915b828110156118695788860151825594840194600190910190840161184a565b508582101561188657878501515f19600388901b60f8161c191681555b505060018460011b0185555b505050505050565b65ffffffffffff8181168382160190808211156114a2576114a2611473565b634e487b7160e01b5f52603260045260245ffd5b5f60208083018184528085518083526040925060408601915060408160051b8701018488015f5b8381101561194757888303603f19018552815180516001600160a01b03168452878101518885015286015160608785018190526119338186018361115f565b9689019694505050908601906001016118f4565b509098975050505050505050565b805160208083015191908110156113d1575f1960209190910360031b1b1691905056fea26469706673582212208b782fad90b0acf1b96f50f6131074ec3772830d0e24f72bd649434a990c36c464736f6c63430008190033","linkReferences":{}},"methodIdentifiers":{"_swapRouters(address)":"01873d8f","accountJobCount(address)":"8eda33d3","addOrder(bytes)":"a3d6df42","checkTokenOrder(address,address)":"fd5fe53a","executeOrder(uint256,uint160,uint256,uint24)":"c32da55d","executionLog(address,uint256)":"548dbd71","getPoolAddress(address,address,address,uint24)":"35228264","getSqrtPriceX96(address)":"d098d320","isInitialized(address)":"d60b347f","isModuleType(uint256)":"ecd05961","name()":"06fdde03","onInstall(bytes)":"6d61fe70","onUninstall(bytes)":"8a91b0e3","setSwapRouter(address)":"41273657","toggleOrder(uint256)":"8805cbd2","version()":"54fd4d50"},"id":239}